:020000040800F2
:10000000B0040020C50100081716000809150008F3
:1000100015160008FD020008791C00080000000009
:100020000000000000000000000000001B16000897
:10003000FF02000800000000191600081D16000845
:10004000DF010008DF010008DF010008DF01000810
:10005000DF010008DF010008DF010008DF01000800
:10006000DF010008DF010008DF010008DF010008F0
:10007000DF010008DF010008DF010008DF010008E0
:10008000DF010008DF010008DF010008DF010008D0
:10009000DF010008DF010008DF010008DF010008C0
:1000A000DF010008DF010008DF010008DF010008B0
:1000B000DF010008DF010008DF010008DF010008A0
:1000C000DF010008DF010008DF010008DF01000890
:1000D000DF010008411C0008DF010008DF01000803
:1000E000DF010008DF010008DF010008DF01000870
:1000F000DF010008DF010008DF010008DF01000860
:10010000DF010008DF010008DF010008DF0100084F
:10011000DF010008DF010008DF010008DF0100083F
:10012000DF010008DF010008DF010008DF0100082F
:10013000DF010008DF010008DF010008DF0100081F
:10014000DF010008DF010008DF010008DF0100080F
:10015000DF010008DF010008DF010008DF010008FF
:10016000DF010008DF010008DF010008DF010008EF
:10017000DF010008DF010008DF01000800000000C7
:10018000DF010008DF010008DF010008DF010008CF
:10019000DF010008DF010008DF010008DF010008BF
:1001A000DF010008DF010008DF010008DFF810D0E0
:1001B00000F092F800480047AD1E0008AFF3008041
:1001C000B00400200648804706480047FEE7FEE7E7
:1001D000FEE7FEE7FEE7FEE7FEE7FEE7FEE7FEE7F7
:1001E000AD160008AD0100082DE9F05F05460020BE
:1001F00092469B4688460646814640241BE0284698
:1002000041464746224600F057F853465A46C01A20
:10021000914110D311461846224600F03EF82D1A9F
:1002200067EB01084F4622460120002100F035F817
:1002300017EB00094E41201EA4F10104DFDC484603
:1002400031462A464346BDE8F09FD2B201E000F8AD
:10025000012B491EFBD270470022F6E710B513466A
:100260000A4604461946FFF7F0FF204610BD30B598
:100270000B46014600202022012409E021FA02F564
:100280009D4205D303FA02F5491B04FA02F52844FE
:10029000151EA2F10102F1DC30BD202A04DB203A58
:1002A00000FA02F1002070479140C2F1200320FAC9
:1002B00003F3194390407047202A04DB203A21FAC7
:1002C00002F00021704721FA02F3D040C2F120026F
:1002D0009140084319467047064C074D06E0E06818
:1002E00040F0010394E8070098471034AC42F6D37D
:1002F000FFF760FFFC2100081C220008FEE77047A2
:100300002DE9F0410446876D00F08CF9064694F81B
:1003100035000025022806D08020606584F834501E
:100320000120BDE8F0812068016821F0160101601C
:100330002068416921F080014161206C08B9A06CFE
:1003400020B12068016821F008010160206801687F
:1003500021F0010101600CE000F064F9801B052828
:1003600007D920206065032084F8350084F83450D4
:10037000D7E720680068C007EED194F85C103F20F2
:100380008840B860012084F8350084F8345000209B
:10039000C7E790F83510022903D08021416501207C
:1003A0007047052180F835100068016821F00101CF
:1003B000016000207047000070B5044600F032F97B
:1003C0000546601C02D004480078044400F02AF975
:1003D000401BA042FAD370BD0C0000202DE9F84F5D
:1003E000DFF8F8A10022012403254FF00F090AF1DC
:1003F000040BAAF1040E00BF0B6804FA02F63340A6
:10040000B34270D10F7907F00307012F01D0022FFB
:1004100016D187684FEA420805FA08FC27EA0C075C
:10042000D1F80CC00CFA08FC4CEA070CC0F808C064
:100430004768B7430E79C6F3001696403E434660C0
:100440000E79F643B6070AD0C7684FEA420C05FAA0
:100450000CF6B7438E6806FA0CF63E43C6600E797A
:1004600006F00306022E10D1D60800EB8608D8F855
:10047000206057074FEAD76C09FA0CF7BE430F69A3
:1004800007FA0CF73743C8F8207006684FEA420CA9
:1004900005FA0CF7BE430F7907F0030707FA0CF7CC
:1004A000374307604E6816F4403F1CD04C4E376807
:1004B00047F480473760366822F0030706F4804629
:1004C0000096484E07EB060CDCF8086897073F0FCC
:1004D00009FA07F826EA0806DFF80C81404503D13F
:1004E0004FF0000841E072E0DFF80081404502D1A2
:1004F0004FF0010839E0DFF8F880404502D14FF0B5
:10050000020832E0DFF8EC80404502D14FF00308EA
:100510002BE0DFF8E480404502D14FF0040824E0EE
:10052000DFF8D880404502D14FF005081DE0DFF824
:10053000D080404502D14FF0060816E0DFF8C480B5
:10054000404502D14FF007080FE0DFF8BC8040457E
:1005500002D14FF0080808E0DFF8B080404502D132
:100560004FF0090801E04FF00A0808FA07F848EAD6
:100570000608CCF80888DAF800605746D1F804C0BD
:100580009E435FEACC2C00D51E433E60DBF8006042
:100590005F46D1F804C09E435FEA8C2C00D51E4311
:1005A0003E60DEF800607746D1F804C09E435FEA03
:1005B0008C3C00D51E433E60084F083F3E68D1F892
:1005C00004C09E435FEACC3C00D51E433E60521CF3
:1005D000102AFFF411AFBDE8F88F0000083C01407D
:1005E0004438024000300140000002400004024054
:1005F00000080240000C02400010024000140240BB
:1006000000180240001C024000200240002402406A
:100610000069084000D0012070470AB1816170472D
:100620000904FBE701488068704700000C000020C7
:100630000248816802781144816070470C000020F4
:100640000B4810B5016841F400710160016841F484
:1006500080610160016841F480710160032000F055
:100660006FF8002000F006F800F024F8002010BD1C
:10067000003C024070B50D4D04464FF47A71287865
:10068000B1FBF0F00A490968B1FBF0F000F00AFB99
:1006900048B9102C07D200222146501E00F030F835
:1006A00000206C6070BD012070BD00000C000020B7
:1006B000080000200A4808B5016841F48041016043
:1006C000006800F4804000900548001F016841F078
:1006D00080510160006800F08050009008BD00006B
:1006E00044380240002809DB00F01F02012191403C
:1006F0004009800000F1E020C0F8001170470000C0
:10070000F0B40E4B1B680C46C3F30223C3F107057C
:10071000042D00D90425191D072901D2002300E06A
:10072000DB1E012606FA05F1491E214099409E4034
:10073000761E16403143F0BC01F0B0BA0CED00E07B
:10074000064900F0070208684FF6FF03184040EA28
:100750000220034A10430860704700000CED00E0DF
:100760000000FA052DE9F0470E46050065D0DFF8D8
:100770001481D8F80000F7B200F00F00B04207D2A1
:1007800088F80070D8F8000000F00F00B04254D193
:1007900028683D4C810712D5400703D5206840F4F6
:1007A000E05020602878000703D5206840F46040BE
:1007B00020602068A96820F0F000084320602878B5
:1007C000C0072DD0304968680839012812D00228A6
:1007D00013D0032811D00968890700292DDA216870
:1007E00021F0030101432160FFF71CFF814641F224
:1007F000883A0EE009688903EFE709688901ECE7A8
:10080000FFF710FFA0EB0901514502D90320BDE815
:10081000F0872068696800F00C00B0EB810FEFD121
:10082000D8F80010404601F00F01B14207D9077017
:10083000006800F00F00B04201D00120E7E72878FF
:10084000400705D52068E96820F4E050084320609F
:100850002878000706D52068296920F4604040EA1E
:10086000C100206000F038F82168084AC1F3031184
:10087000515CC8400649086006480068FFF7FAFE68
:100880000020C4E7003C024008380240E421000890
:10089000080000201000002004480549006809688D
:1008A000044AC1F38221515CC8407047080000200F
:1008B00008380240F4210008044805490068096826
:1008C000044AC1F34231515CC8407047080000201F
:1008D00008380240F4210008154810B5006810F0EF
:1008E0000C02144813D04110042A0FD0082A0ED14C
:1008F0000F4C241F2268236802F03F025B0207D5D9
:100900002068C0F38810A0FB010106E0084610BD76
:100910002168C1F38811A1FB00010023FFF764FCEB
:100920002168C1F30141491C4900B0FBF1F010BD41
:10093000083802400024F4002DE9F84F04006ED07E
:100940002078DFF84C93C007A9F104054AD009F1DB
:1009500004000168C1F38101012908D00068C0F3D7
:10096000810002280AD1D9F80000400206D5286883
:10097000800337D560680028E1D033E06068B0F5C7
:10098000803F10D0B0F5A02F286810D020F4803020
:100990002860286820F4802028606068A8B1FFF7EC
:1009A00041FE06460DE0286840F48030F4E740F44C
:1009B00080202860F7E700BFFFF734FE801B642823
:1009C00073D828688003F7D50CE0FFF72BFE0646A6
:1009D00005E000BFFFF726FE801B6428F0D82868DA
:1009E0008003F7D42078DFF8AC8280074FF0000A4C
:1009F0003ED5A748001D016811F00C0F08D0006813
:100A0000C0F3810002280BD1D9F80000400207D4BE
:100A10002868800716D5E068012800D112E033E18C
:100A2000E068B8B10120C8F80000FFF7FBFD0646FA
:100A300005E000BFFFF7F6FD801B0228C0D828683C
:100A40008007F7D52868216920F0F80040EAC10046
:100A500028600DE0C8F800A0FFF7E4FD064604E0BA
:100A6000FFF7E0FD801B02281FD828688007F7D415
:100A70002078000722D5864F87486169703771B1A9
:100A800001210160FFF7CEFD064604E0FFF7CAFD35
:100A9000801B022809D838688007F7D50EE0C0F817
:100AA00000A0FFF7BFFD064605E082E0FFF7BAFDB4
:100AB000801B02287DD838688007F7D4207840074B
:100AC00068D5DFF8CCB100270BF13C0BDBF8000058
:100AD000C0000BD4DBF8001041F08051CBF80010BF
:100AE000DBF80000012700F0805000906B4E30686A
:100AF000C00510D4306840F480703060FFF792FD7C
:100B0000009005E0FFF78EFD0099401A022850D8AA
:100B10003068C005F6D55E4EA0686C3601280FD04F
:100B20000528306810D020F001003060306820F0D7
:100B300004003060A068B8B1FFF774FD00900FE0CA
:100B4000306840F00100F4E740F004003060F7E75F
:100B5000FFF768FD0099411A41F28830814266D85A
:100B600030688007F4D50EE0FFF75CFD009007E0E9
:100B7000FFF758FD0099411A41F28830814256D85A
:100B800030688007F4D42FB1DBF8001021F08051D9
:100B9000CBF80010A069C8B33D49091D0968C1F32D
:100BA000810102294AD00228504607D0C8F86000C7
:100BB00000E03CE0FFF736FD04463BE04746C8F85E
:100BC0006000FFF72FFD064605E000BFFFF72AFD96
:100BD000801B02282BD828688001F7D4D4E90701AC
:100BE0000843A16A2E4A490802EB0141626A41EAC0
:100BF0008211084394F82C1040EA0161C9F80010F2
:100C000001203866FFF70EFD044606E03EE000BF17
:100C1000FFF708FD001B022809D828688001F7D5D6
:100C200034E000BFFFF7FEFC001B022802D90320BE
:100C3000BDE8F88F28688001F4D427E00128F7D0B8
:100C4000D9F80000E26900F4800191421CD1226AC7
:100C500000F03F01914217D147F6C071626A01402E
:100C6000B1EB821F10D1A26A4FF0FF3300F4403184
:100C700003EB5202B1EB024F06D194F82C1000F0B6
:100C80007060B0EB016F01D00120D1E70020CFE709
:100C90000438024000004742800E47420070004086
:100CA0000000FFFF10B5401EB0F1807F01D301208E
:100CB00010BD4FF0E02460610F21601700F0EEFFDF
:100CC0000020A06107202061002010BD70B590F8C1
:100CD0003C20012A32D0012480F83C40022280F8D6
:100CE0003D2003685A689D6822F070060A68324306
:100CF0005A60134B02689A4214D0B2F1804F11D05F
:100D0000104B9A420ED0104B9A420BD00F4B9A4286
:100D100008D00F4B9A4205D00E4B9A4202D00E4B90
:100D20009A4204D1496825F080031943916080F804
:100D30003D40002180F83C10084670BD022070BD87
:100D4000000001400004004000080040000C00408A
:100D500000040140004001400018004010B50400AC
:100D600003D094F83D0010B107E0012010BD002031
:100D700084F83C00204600F01FF8022084F83D0073
:100D8000211D206800F0A0FC012084F8460084F8B2
:100D90003E0084F83F0084F8400084F8410084F865
:100DA000420084F8430084F8440084F8450084F845
:100DB0003D00002010BD000008B5006806498842CB
:100DC00008D10648016841F004010160006800F0A4
:100DD0000400009008BD00000008004040380240B8
:100DE00070B5044690F83C000025012817D0012674
:100DF00084F83C60022084F83D002068826822F07C
:100E0000770222F47F4282600868502838D00DDCD7
:100E100020284FD005DC90B3102811D14AE00220E1
:100E200070BD302846D040280AD13BE060282FD042
:100E300070280DD0B0F5805F03D0B0F5005F12D000
:100E4000012584F83D60002084F83C00284670BDF0
:100E5000CB68D1E90121206800F0ABFC20688168F3
:100E600041F0770109E0CB68D1E90121206800F069
:100E7000A0FC2068816841F480418160E1E719E0CD
:100E8000CA684968206800F069FD5021206806E0C2
:100E9000CA684968206800F072FD6021206800F08F
:100EA00092FCCEE7CA684968206800F057FD4021EF
:100EB0002068F4E7226801461046F0E710B586B0D6
:100EC000044614216846FFF7C7F90E492068884296
:100ED00015D10D480021026842F008020260006846
:100EE00000F0080005904FF4805000900220CDE9FA
:100EF0000101CDE9031069460448FFF76FFA06B017
:100F000010BD00000008004030380240000C0240D4
:100F100070B5044690F83C0000260D4601280FD01D
:100F2000012084F83C006AB1042A1DD0082A2FD081
:100F30000C2A3FD00126002084F83C00304670BDCA
:100F4000022070BD206800F047FC2068816941F0F4
:100F5000080181612068816921F0040181612068B4
:100F600081692A69114311E0206800F065FC20685E
:100F7000816941F4006181612068816921F48061A7
:100F80008161206881692A6941EA02218161D2E791
:100F9000206800F087FC2068C16941F00801C16148
:100FA0002068C16921F00401C1612068C1692A6912
:100FB000114311E0206800F0A9FC2068C16941F4E8
:100FC0000061C1612068C16921F48061C16120684C
:100FD000C1692A6941EA0221C161ACE710B5040088
:100FE00003D094F83D0010B107E0012010BD0020AF
:100FF00084F83C00204600F01EF8022084F83D00F2
:10100000211D206800F060FB012084F8460084F870
:101010003E0084F83F0084F8400084F8410084F8E2
:10102000420084F8430084F8440084F8450084F8C2
:101030003D00002010BD704710B50446022249B1A2
:1010400004290ED0082913D094F84100012816D0A5
:10105000012010BD94F83E000128F9D184F83E200B
:101060000FE094F83F000128F2D184F83F2008E017
:1010700094F840000128EBD184F8402001E084F886
:1010800041200122206800F087FB16492068164A9B
:10109000884201D0904203D1436C43F4004343643F
:1010A0002068884213D0B0F1804F10D00F49884299
:1010B0000DD00F4988420AD00E49884207D090428D
:1010C00005D00D49884202D00C49884204D181687C
:1010D00001F00701062903D0016841F00101016018
:1010E000002010BD00000140000401400004004049
:1010F00000080040000C0040004001400018004083
:1011000070477047F8B5016804460868CA684B69BB
:1011100010F00F0F4FF0000559D003F0010602F454
:101120009077374365D0C10705D0D10503D5616CF1
:1011300041F001016164410705D5D90703D0616C15
:1011400041F002016164810705D5D90703D0616CC4
:1011500041F004016164010707D502F02001314329
:1011600003D0616C41F008016164616C00293AD0E0
:10117000800604D5900602D5204600F040FC206889
:101180004069616CC0F38010090700D460B3204649
:1011900000F00EFC20684069400621D5206814301C
:1011A00050E8001F21F0400140E80012002AF5D16C
:1011B000E06BA8B172490165E06BFFF7EAF800281F
:1011C00011D0E06B016D01B0BDE8F0400847830627
:1011D0000FD593060DD52046BDE8F84000F00FBCB2
:1011E0002046FFF78EFFF8BD2046FFF78AFF6564B3
:1011F000F8BD266B2023012E7ED1C6067CD5D606EF
:101200007AD508684868009048694FF002064006A1
:101210004DD5E26B106840684FF480770004000CF5
:101220003AD0A18D814237D9E085D069B8422DD01E
:1012300020680C3050E8001F21F4807140E8001253
:10124000002AF5D12068143050E8001F21F0010178
:1012500040E80012002AF5D12068143050E8001F41
:1012600021F0400140E80012002AF5D184F8423014
:10127000256320680C3050E8001F21F0100140E881
:101280000012002AF5D1E06BFFF73AF86663A08DF3
:10129000E18D401A81B206E0A18D8142A8D1D069CA
:1012A000B842A5D166632046FFF72AFFF8BDA08D9E
:1012B000E18D401A81B2E08D0028F7D00029F5D0E9
:1012C00020680C3050E8002F22F4907240E800278C
:1012D000002FF5D12068143050E8002F22F00102D1
:1012E00040E80027002FF5D184F8423025632068BC
:1012F0000C3050E8002F00E006E022F0100240E839
:101300000023002BF3D1CDE705062BD5150629D5F3
:1013100094F841002128C9D1A068B0F5805F01D1BF
:101320002069B0B1206A411C2162216800784860C0
:10133000E08C401E0004000CE084B7D12068C16836
:1013400021F08001C1602068C16841F04001C160A6
:10135000F8BD206A0088C0F308004860206A801C3D
:101360002062E5E74006F3D55006F1D5CA6820466D
:1013700022F04002CA6084F8413000F0C4F8F8BDA1
:10138000A319000870B5040004D094F841000025AA
:1013900010B106E0012070BD84F84050204600F0F6
:1013A00023F8242084F841002068C16821F400510A
:1013B000C160204600F084FB2068016921F490415F
:1013C00001612068416921F02A0141612068C168FA
:1013D00041F40051C1606564202084F8410084F824
:1013E00042006563002070BD10B586B0044614212C
:1013F0006846FEF731FF18492068884229D117480E
:101400000021026842F010020260006800F0100043
:10141000059012481438026842F001020260006828
:1014200000F0010005904FF4C06000900220CDE96B
:101430000101032003900720049069460848FEF745
:10144000CDFF002211462520FFF75AF92520FFF78E
:1014500049F906B010BD00000010014044380240B8
:101460000000024070472DE9F843044690F841001F
:10147000984616460D46202802D00220BDE8F88383
:1014800085B17EB100206064212084F84100FFF71F
:10149000C9F8A6848146E684A0682027B0F5805F5D
:1014A00002D003E00120E9E7206910B12E460025B3
:1014B0000EE000260CE08021204600F087FBA8B952
:1014C000C6B116F8010B21684860E08C401EE0842C
:1014D000E08C4B464FF00002CDF800800028EAD1A6
:1014E0004FF04001204600F071FB40B184F841709C
:1014F0000320C3E735F8020BC0F30800E3E784F8E4
:1015000041700020BAE77047FEE7000070B586B072
:1015100014216846FEF7A0FE1E480024016841F031
:1015200080010160016801F080010591016841F0CE
:1015300001010160016801F001010591016841F0BC
:1015400008010160016801F008010591016841F09E
:10155000400101600068104E00F040004FF4C045AB
:101560000590002229463046FFF757F84FF4646093
:10157000CDE90004694630460294FEF72FFF0120B2
:101580000095CDE90104694630460394FEF726FF35
:1015900006B070BD303802400018024010B58EB061
:1015A00000240794089409940A940B941C2168461B
:1015B0000C94FEF751FE16481449C0E9001442F29B
:1015C000CF01C0E9024104618461FFF7C7FB4FF41A
:1015D0008050079007A90E48FFF702FC0C48FFF760
:1015E000FDFC0B940BA90A480C94FFF76FFB6020DD
:1015F000CDE9000402940022694605480494FFF7EF
:1016000087FC0348FFF75AFC0EB010BD00080040ED
:101610001C000020FEE7704770477047FFF708B8CE
:1016200030B593B030216846FEF716FE14210CA8A1
:10163000FEF712FE1B480025016841F08051016051
:10164000006800F0805011901748016821F4404173
:1016500041F4804101600068022400F44040119090
:101660000120039010200490009406940820CDE9F6
:1016700007503220099004200A9007200B906846FA
:10168000FFF75AF90CA90F2081E831004FF4C05040
:101690000F904FF4A050109000210CA8FFF762F8B3
:1016A00013B030BD4038024000700040054801686A
:1016B00041F47001016003494FF000608039086017
:1016C0007047000088ED00E0F0B50268274B284D18
:1016D000284E294F294C4FF0804C984209D0604544
:1016E00007D0A84205D0B04203D0B84201D0A042F2
:1016F00004D122F0700E4A6842EA0E0298421BD0D2
:10170000604519D0A84217D0B04215D0B84213D0C6
:10171000A04211D01A4DA8420ED01A4DA8420BD0AB
:10172000194DA84208D0194DA84205D0184DA8421D
:1017300002D0184DA84203D122F44075CA682A434A
:101740004D6922F080022A438D68C5620D6885626A
:10175000984201D0A04201D109690163016841F0BA
:1017600004010160012141610260F0BD00000140FF
:101770000004004000080040000C0040000401404C
:101780000040014000440140004801400018004072
:10179000001C00400020004010B501F01F03012193
:1017A000046A99408C430462016A9A4011430162C1
:1017B00010BD10B5846842EA032224F47F440A4332
:1017C0002243826010BD826822F070020A4342F018
:1017D0000701816070470000F0B5036A026A22F0D9
:1017E0000102026242688469124E24F073050C689B
:1017F0002C4323F002058B682B430D4DA84201D0EA
:10180000B04205D123F00807CB683B4323F0040323
:10181000A84201D0B04205D14D6922F4407215436F
:101820008A692A4342608461496841630362F0BD6A
:101830000000014000040140F0B5026A036A23F091
:1018400010030362436884690D6824F4E64444EAA3
:1018500005248D6822F0200242EA05120F4D104E39
:10186000A84201D0B04206D1CF6822F0800242EAFD
:10187000071222F04002A84201D0B04207D14D69C0
:1018800023F4406343EA85038D6943EA850343609B
:101890008461496881630262F0BD0000000001407C
:1018A00000040140F0B5026A036A23F48073036206
:1018B0004368C46922F4007224F073050C68124E68
:1018C0002C438D6842EA05220E4DA84201D0B04259
:1018D00006D1CF6822F4006242EA072222F4806235
:1018E000A84201D0B04207D14D6923F4405343EAE6
:1018F00005138D6943EA05134360C4614968C163F8
:101900000262F0BD000001400004014030B5046AED
:10191000026A22F4805202624268C3690D6823F4AD
:10192000E64343EA05238D6824F4005444EA053471
:10193000084DA84202D0084DA84204D14D6922F4B6
:10194000804242EA85124260C361496801640462D0
:1019500030BD0000000001400004014010B5036AE2
:10196000046A24F001040462846924F0F00444EA67
:10197000021423F00A020A438461026210BD10B50A
:10198000036A046A24F010040462846923F0A0034B
:1019900024F4704444EA023243EA01118261016294
:1019A00010BD10B5806B0021C185FFF7AAFB10BDEB
:1019B00001680C3151E8002F22F4907241E80023B5
:1019C000002BF5D10168143151E8002F22F00102FB
:1019D00041E80023002BF5D1016B012909D10168F1
:1019E0000C3151E8002F22F0100241E80023002BB7
:1019F000F5D1202180F8421000210163704708B51D
:101A000090F84210222901D0022008BD82684FF4CC
:101A100080539A4201D1016921B1816A9A421BD057
:101A20004AB10AE00268816A5268C2F308020A8079
:101A3000816A891C08E0026972B10268526802F08A
:101A40007F020A70816A491C8162C18D491E0904A6
:101A5000090CC18503D01BE002685268F1E70168F8
:101A6000CA6822F02002CA600168CA6822F4807243
:101A7000CA6001684A6922F001024A61202180F8A7
:101A8000421000214163026B012A03D0FFF7EAFCF8
:101A9000002008BD016301680C3151E8002F22F0DD
:101AA000100241E80023002BF5D101680A68D20634
:101AB00002D50A6849680091818DFFF721FBE7E7AD
:101AC00070B5044600680169E26821F44051114391
:101AD00001612169A068E269084361691143084313
:101AE0002168CA6849F20C639A430243CA602068BD
:101AF0004169A26921F44071114341613149206873
:101B0000884202D03049884202D1FEF7D5FE01E07A
:101B1000FEF7C2FEE2690023192164253226B2F5E0
:101B2000004F626828D0A0FB0101930F9200FEF7DE
:101B30005BFB0146B0FBF5F06FF01802504301EB80
:101B4000800006EB0010B0FBF5F000F0F002B1FBF6
:101B5000F5F002EB0012B1FBF5F06FF018035843FB
:101B600001EB800006EB0010B0FBF5F000F00F0079
:101B700021681044886070BDA0FB010192185B4190
:101B8000FEF732FB0146B0FBF5F00201B1FBF5F0C8
:101B90006FF01803584301EB800006EBC000B0FB68
:101BA000F5F000F0F80002EB4002B1FBF5F058430D
:101BB00001EB800006EBC000B0FBF5F000F0070081
:101BC000D6E7000000100140001401402DE9F84361
:101BD000984617460D460446089E24E0701C22D005
:101BE000FEF720FDA0EB0800B0421AD8CEB1206865
:101BF000C168490717D5802D15D0402D13D0016835
:101C0000C94309070FD401680025406800902046A9
:101C1000FFF7CEFE0820606484F840500120BDE844
:101C2000F8830320FBE72068006835EA000004D051
:101C30000020B842D2D00020F1E70120F9E70000EF
:101C400010B509484068C1B20D2909D00A2907D04A
:101C500006A000F013F8BDE810400548FFF752BA9F
:101C600004A000F00BF8F6E7001001402563000027
:101C7000640000200D0A0000FEE700000FB4054BD1
:101C800010B503A9044A029800F028F810BC5DF8CA
:101C900014FB0000951E0008180000200907090E1B
:101CA000002804DB00F1E02080F80014704700F009
:101CB0000F0000F1E02080F8141D704702E008C812
:101CC000121F08C1002AFAD170477047002001E0B6
:101CD00001C1121F002AFBD1704700002DE9FF4F00
:101CE0008BB09A460F460546002606E025280BD005
:101CF00052460D9990476D1C761C28780028F5D126
:101D00000FB03046BDE8F08F0024A04601226049A4
:101D100000E0044315F8013F203B02FA03F00842BB
:101D2000F7D128782E2817D115F8010F44F00404B4
:101D30002A280ED06FF02F022878A0F1300109294F
:101D40000AD808EB880102EB410100EB01086D1C89
:101D5000F2E757F8048B6D1C287869283ED006DC22
:101D60000028CDD063280BD0642804D136E0732836
:101D700010D075284BD052460D999047761C85E0BF
:101D800017F8040B8DF8000000208DF80100E946DB
:101D9000012003E057F8049B4FF0FF3061074FF03C
:101DA000000401D40AE0641C44450DDA8442FADBE5
:101DB00019F804100029F6D106E0641C8442FCDB0B
:101DC00019F804100029F8D1264404E019F8010B91
:101DD00052460D999047641EF8D257E001CF4FF05C
:101DE0000A0B002802DA40422D2102E0210504D529
:101DF0002B218DF82410012103E0E10705D02021DB
:101E0000F7E70DF1200908910CE00021F9E701CF77
:101E10004FF00A0BF9E75946FEF729FA01F13002B3
:101E200009F8012D0028F6D1ADEB090000F1200BD7
:101E3000600701D44FF00108D84502DDA8EB0B0084
:101E400000E000208046002406E009A85246005D1C
:101E50000D999047641C761C08988442F5DB04E0D9
:101E6000302052460D999047761CB8F10001A8F138
:101E70000108F5DC05E019F8010B52460D99904771
:101E8000761CBBF10001ABF1010BF4DC6D1C34E7F7
:101E90000928010013B54FF6FF7301226946024875
:101EA000FFF7E1FA00981CBD640000202DED068BC1
:101EB000FEF7C6FBFFF7B4FBFFF728FB7B487A4928
:101EC000002501604FF41651C0E901150C21C560D1
:101ED000C0E904518561C561FFF754FAFFF75EFB65
:101EE000724800214838FFF7A7F84FF4FA70FEF760
:101EF00063FA6FA0FFF7C2FE78A0FFF7BFFE81A0D4
:101F0000FFF7BCFE8FA0FFF7B9FE93A0FFF7B6FE68
:101F10004FF4007B4FF07E5AF7EE009ADFED99AA5E
:101F20009FED99AADFF884814FF00109A8F14808D4
:101F3000DFED968A9FED969A964C974F974EB6EEA8
:101F4000008A40213046FEF763FB08B325705946EE
:101F50003046FEF75DFB48B384F801504FF48061D2
:101F60003046FEF755FB88B384F802504FF4006109
:101F70003046FEF74DFB002855D0E5706068B8424A
:101F80007DDD012251033046FEF747FB002281E050
:101F900020780028DBD184ED01AAD8F80000456341
:101FA0007FA0FFF76BFE84F80090D0E760780028F0
:101FB000D4D1C4ED019AD8F8000042F2CF014163B8
:101FC0007DA0FFF75BFE84F80190C7E7FFE7A078EC
:101FD0000028CBD194ED010A10EE100A504503DA27
:101FE00030EE2A0A84ED010A10EE100A504501DD98
:101FF000C4ED019A94ED010AD8F8001060EE280AA9
:10200000FCEEE00A10EE900A4863F0EE480A71A078
:1020100040EE090ABDEEE00A10EE101AFFF72EFEA0
:1020200084F80290A2E7E0780028A7D194ED010A95
:10203000B5EEC00AF1EE10FA03DD30EE6A0A84ED67
:10204000010AB5EEC00AF1EE10FA01D284ED01AA40
:1020500094ED010AD8F8001060EE280AFCEEE00AC0
:1020600010EE900A4863F0EE480A5AA040EE090AC2
:10207000BDEEE00A10EE101AFFF700FE00E002E0ED
:1020800084F803907AE700224FF400513046FEF7BF
:10209000C4FA01224FF480413046FEF7BEFA142004
:1020A000FEF78AF94DE700000010014064000020AF
:1020B0000A0D3D3D3D3D3D3D3D3D3D3D3D3D3D3DB3
:1020C0003D3D3D3D3D3D3D3D3D3D3D3D3D3D3D3D40
:1020D0003D3D3D3D3D3D0D0A0000000020202050CB
:1020E000524F49454354204D43202D20434F4E54D9
:1020F000524F4C2056454E54494C41544F520D0AB4
:102100000000000020202053747564656E74693AE5
:10211000204261726F697520566C616475742D413F
:102120006E647265692C20457075726520416C651E
:1021300078616E6472752D56616C656E74696E0D92
:102140000A00000020202047727570613A20333168
:102150003332410D0A0000003D3D3D3D3D3D3D3DDA
:102160003D3D3D3D3D3D3D3D3D3D3D3D3D3D3D3D9F
:102170003D3D3D3D3D3D3D3D3D3D3D3D0D0A0D0A55
:1021800000000000CDCCCC3D00000000003C034628
:102190000000C842000000200AD7233C001802407B
:1021A000436F6D616E64613A204F5052495420284C
:1021B000302525290D0A0000436F6D616E64613A78
:1021C000204D4158494D20283130302525290D0A10
:1021D00000000000547572617469653A2025642519
:1021E000250D0A00000000000000000001020304A9
:1021F0000607080900000000010203041C22000871
:10220000000000201C000000BC1C00083822000850
:102210001C00002094040000CC1C000800000000FA
:10222000000000000024F400010000001000000085
:082230000000000000000000A6
:04000005080001AD41
:00000001FF
